:020000040000FA
:10000000D86E00204D080000550800005708000079
:10001000590800005B0800005D08000000000000B7
:100020000000000000000000000000005F08000069
:1000300061080000000000006308000005050000E2
:1000400067080000690800006B0800006D080000E8
:10005000B557000071080000730800007508000023
:1000600077080000790800007B080000995700001D
:100070007F08000081080000830800008508000058
:1000800087080000890800008B0800008D08000028
:100090008F080000910800009308000095080000F8
:1000A00097080000990800009B0800009D080000C8
:1000B0009F080000A1080000A3080000A508000098
:1000C000A7080000A9080000AB080000AD08000068
:1000D000AF080000B1080000B3080000B508000038
:1000E000B7080000B9080000BB080000BD08000008
:1000F000BF080000C1080000C3080000C5080000D8
:10010000C7080000C9080000CB080000CD080000A7
:10011000CF080000D1080000D3080000D508000077
:10012000D7080000D9080000DB080000DD08000047
:10013000DF080000E1080000E3080000E508000017
:10014000E7080000E9080000EB080000ED080000E7
:10015000EF080000F1080000F3080000F5080000B7
:10016000F7080000F9060000FB08000071570000C6
:10017000FF08000001090000030900000509000054
:1001800007090000090900000B0900000D09000023
:100190000F090000110900001309000015090000F3
:1001A0005907000019090000DFF80CD036F08CF870
:1001B00000480047D5010000D86E0020C1EB0111B6
:1001C00000EB411040F20C01C2F20001096841F855
:1001D0002020704784B000F009FC8024C4F20A0497
:1001E00020460021012201230025012601F09CFD6B
:1001F000204601210122002301F096FD42F2000475
:100200004FF46140C4F20404009069462046ADF802
:1002100004508DF806508DF808508DF80A508DF86E
:100220000C5002F0A3FB204602F060FC00F0A8FA9C
:1002300002F04AFD4EF60C50CEF2000001684FF677
:10024000FF02114041F0806141F0FD7101600068E2
:100250004FF0FF32C0F3022080F00701032928BFCE
:100260000321043802FA01F138BF284626EA0101C9
:1002700001FA00F04EF249414001CEF2000108704F
:1002800000F038F802F000FE09F040F905F0A6FA97
:1002900035F010FF1EF02AFAFCE700BFB0B584B0BD
:1002A0008024C4F20A0420460021012201230025F3
:1002B00001F03AFD204601210122002301F034FD26
:1002C00042F200044FF46140C4F204040090694615
:1002D0002046ADF804508DF806508DF808508DF882
:1002E0000A508DF80C5002F041FB204602F0FEFB54
:1002F00004B0B0BDF0B583B04025C4F20A0505F1E5
:10030000400420460D210222002301F00DFD20466D
:100310000E210322002301F007FDA5F1300630462F
:1003200007210122002301F0FFFC304608210422AE
:10033000002301F0F9FC304609210422002301F0DA
:10034000F3FC30460A210422002301F0EDFC28468C
:100350000F210122002301F0E7FC28460E21012293
:10036000002301F0E1FC05F1500738460E2101227F
:10037000002301F0D9FC38460D210122002301F0B1
:10038000D3FC38460C210122002301F0CDFC384675
:100390000B210122002301F0C7FC38460A2101226B
:1003A000002301F0C1FC384609210122002301F09D
:1003B000BBFC384608210122002301F0B5FC384679
:1003C00007210122002301F0AFFC3846062101225B
:1003D000002301F0A9FC384603210222002301F08A
:1003E000A3FC38460F210122002301F09DFC384672
:1003F00002210122002301F097FC20460F21032255
:10040000002301F091FC284607210122012301F07D
:100410008BFC284606210122012301F085FC284699
:1004200005210122012301F07FFC2846042101223D
:10043000012301F079FC284603210122012301F068
:1004400073FC284602210122012301F06DFC28469D
:1004500001210122012301F067FC2846002101222D
:10046000012301F061FC284608210122012301F04B
:100470005BFC284609210122012301F055FC284696
:100480000A210122012301F04FFC28460B21012201
:10049000012301F049FC28460C210122012301F02F
:1004A00043FC28460D210122012301F03DFC203DA3
:1004B00028460E210122012301F036FC28460F2197
:1004C0000122012301F030FC3046062101220023E5
:1004D00001F02AFC20460C210222002301F024FC1A
:1004E0000020C0F20110019040F60100ADF80800B4
:1004F00001A801F03FFC03B0F0BD00BF01201AF0DD
:10050000D9BD00BF80B500F063F90120BDE880408F
:100510001AF0D0BD2DE9F0438BB02026C4F20A06B4
:10052000A6F110052846012104220023002701F02E
:10053000FBFB28460B21062200234FF0060801F0A2
:10054000F3FB28460D210722002301F0EDFB28468E
:100550000F210722002301F0E7FB0024C4F20A0464
:10056000204602210422002301F0DEFB204609215F
:100570000222002301F0D8FB20460A210522002395
:100580004FF00A0901F0D0FB20460B210422002382
:1005900001F0CAFB20460C210422002301F0C4FB19
:1005A00020460D210422002301F0BEFB20460E212F
:1005B0000222002301F0B8FB20460F210222002373
:1005C00001F0B2FB304600210522002301F0ACFB14
:1005D000304601210622002301F0A6FB304602210D
:1005E0000622002301F0A0FB30460321062200234F
:1005F00001F09AFB304604210622002301F094FB0F
:10060000304605210422002301F08EFB30460821EC
:100610000122002301F088FB304609210422002337
:1006200001F082FB30460A210422002301F07CFB0A
:1006300030460B210422002301F076FB30460C21CA
:100640000322002301F070FB30460D210622002317
:1006500001F06AFB284602210622002301F064FB18
:10066000284603210722002301F05EFB28460421CF
:100670000622002301F058FB28460521062200230C
:1006800001F052FBA4F5BD252846092101220123D2
:100690000097019701F0B6F82846092101F064F9A6
:1006A00040F2E010C0F2E010CDF80E0014208DF8FA
:1006B00012003820ADF8140028208DF816003C20D8
:1006C000C0F20800069040F20C00C2F20000006880
:1006D00003A908904FF6FF70099040F20110ADF8A1
:1006E0002800A4F51E20ADF80C80ADF81C9001F098
:1006F000CFF90BB0BDE8F08310B542F20004C4F2AC
:100700000004204601F074FA2046BDE8104001F0D4
:100710005DBA00BF80B540F20C00C2F20000016873
:1007200042F6486040F2E012C2F20000C0F2E0126D
:10073000C2600022C0E90012012101721F2100F0F5
:10074000FFFE00F09BFF002808BF80BD00BF00F047
:1007500095FF0028FAD180BD00F0A8BFB0B542F2E5
:100760000005C4F204050446C1B2284602F0C4F9EB
:10077000284602F0CBF90028FAD12046B0BD00008F
:1007800040F21000C2F20000006844F6D351C1F2FA
:100790006201A0FB01014FF0FF3000EB911100203E
:1007A000B0EB116F0ED14EF210024EF6235CCEF27A
:1007B0000002CEF2000CE02351608CF800300723D9
:1007C00090601360B1F1807F38BF0120704700BF97
:1007D00042F69C60C2F2000001680131016070477E
:1007E00042F69C60C2F200000068704742F69C61CD
:1007F000C2F200010A6800BF0B689B1A8342FBD358
:10080000704700BF80B54EF21801CEF2000151F8DA
:1008100004CC44F6D3520CFB00F0C1F26202A0FB00
:10082000020208684FEA921E002300BF0A68904245
:10083000FCD003449B1A904298BF63447345104612
:1008400028BF80BDF2E700BF7047000033488047F3
:1008500033480047FEE7FEE7FEE7FEE7FEE7FEE778
:10086000FEE7FEE7FEE7FEE7FEE7FEE7FEE7FEE760
:10087000FEE7FEE7FEE7FEE7FEE7FEE7FEE7FEE750
:10088000FEE7FEE7FEE7FEE7FEE7FEE7FEE7FEE740
:10089000FEE7FEE7FEE7FEE7FEE7FEE7FEE7FEE730
:1008A000FEE7FEE7FEE7FEE7FEE7FEE7FEE7FEE720
:1008B000FEE7FEE7FEE7FEE7FEE7FEE7FEE7FEE710
:1008C000FEE7FEE7FEE7FEE7FEE7FEE7FEE7FEE700
:1008D000FEE7FEE7FEE7FEE7FEE7FEE7FEE7FEE7F0
:1008E000FEE7FEE7FEE7FEE7FEE7FEE7FEE7FEE7E0
:1008F000FEE7FEE7FEE7FEE7FEE7FEE7FEE7FEE7D0
:10090000FEE7FEE7FEE7FEE7FEE7FEE7FEE7FEE7BF
:10091000FEE7FEE7FEE7FEE7FEE70000210C000031
:10092000A90100004FF080410868C00740F21000A4
:10093000C2F200001BD10968C1F38202042A3FD829
:100940004FF4FA41DFE802F03B0323262B004AF282
:100950000001C4F20A01096C89074CF2EC11C0F6DF
:10096000EB315CBF40F60061C0F2277127E04AF22C
:100970000001C4F20A010968890745F60021C0F2A6
:1009800062215CBF42F60051C0F231111FE04FF40A
:10099000004114E041F60031C0F2B7010FE042F629
:1009A0000051C0F2311101604AF20001C4F20A01A3
:1009B0000968890704D545F60021C0F2622101606B
:1009C0004FF080410968890702D50168C9080160B4
:1009D00000684DF68361C4F21B31A0FB0101880C55
:1009E00040F20801C2F2000108607047F0B581B022
:1009F0007024C4F2000454F8680C4AF2000640F077
:100A0000007044F8680C9620C4F20A0600F0AAFEB2
:100A1000012030604FF080400168C90710D10068A4
:100A200010F01C0F06D04FF08040006800F01C0052
:100A3000082805D1142000BF013800BFFCD104E014
:100A400044F62060013800BFFCD14FF08047386881
:100A500040F6006540F00100C0F22775386000F0F4
:100A600071FA012044F86C0C386820F01C003860E2
:100A7000386840F004003860386820F002003860C0
:100A8000386820F0010038603868C00740F2100074
:100A9000C2F2000014D13968C1F38202042A30D8AE
:100AA0004FF4FA41DFE802F02C03181B2000316CF0
:100AB00089074CF2EC11C0F6EB3158BF29461FE014
:100AC0003168890745F60021C0F262215CBF42F619
:100AD0000051C0F231111BE04FF4004110E041F62B
:100AE0000031C0F2B7010BE042F60051C0F2311103
:100AF00001603168890704D545F60021C0F2622102
:100B000001604FF080410968890702D50168C90872
:100B1000016001684DF68360C4F21B30A1FB000246
:100B2000900C40F20802C2F20002A942106001D902
:100B3000962017E04BF20040C0F2C440814201D938
:100B400078200FE045F60020C0F26220814201D9F2
:100B5000502007E04CF28032C0F2C9121E209142B0
:100B600088BF282000F0FEFD40F28010C4F20A0089
:100B7000D0F8001121F00201C0F80011016821F045
:100B80000C010160206820F006002060206840F021
:100B90000200206001B0F0BDB0B54AF20001C4F21D
:100BA0000A0101220A604FF080410A680446D20718
:100BB00010D1086810F01C0F06D04FF0804000687C
:100BC00000F01C00082805D1142000BF013800BF28
:100BD000FCD104E044F62060013800BFFCD14FF0A6
:100BE0008045286840F00100286000F0ABF904203F
:100BF000C4F20000012101602868002C20F01C00D4
:100C00002860286840F004002860286820F002006E
:100C100018BF02302860286820F001002860B0BDAD
:100C2000704700BF4AF20000C4F20A0001210160CF
:100C30004FF080400168C90710D1006810F01C0F08
:100C400006D04FF08040006800F01C00082805D155
:100C5000142000BF013800BFFCD104E044F620603E
:100C6000013800BFFCD14FF08040016841F0010124
:100C7000016070474AF20000C4F20A0001210160DD
:100C80004FF080400168C90710D1006810F01C0FB8
:100C900006D04FF08040006800F01C00082805D105
:100CA000142000BF013800BFFCD104E044F62060EE
:100CB000013800BFFCD14FF080400168012241F0B3
:100CC000010101600421C4F200010A60016821F001
:100CD0001C010160016841F010010160016841F0F0
:100CE000020101600168C90710D1006810F01C0FF3
:100CF00006D04FF08040006800F01C00082805D1A5
:100D0000142000BF013800BFFCD104E044F620608D
:100D1000013800BFFCD14FF08040016821F0010193
:100D2000016070474AF20000C4F20A00032101602A
:100D30004FF080400168C90710D1006810F01C0F07
:100D400006D04FF08040006800F01C00082805D154
:100D5000142000BF013800BFFCD104E044F620603D
:100D6000013800BFFCD14FF08040016841F0010123
:100D7000016070474AF20000C4F20A0003210160DA
:100D80004FF080400168C90710D1006810F01C0FB7
:100D900006D04FF08040006800F01C00082805D104
:100DA000142000BF013800BFFCD104E044F62060ED
:100DB000013800BFFCD14FF080400168012241F0B2
:100DC000010101600421C4F200010A60016821F000
:100DD0001C010160016841F010010160016841F0EF
:100DE000020101600168C90710D1006810F01C0FF2
:100DF00006D04FF08040006800F01C00082805D1A4
:100E0000142000BF013800BFFCD104E044F620608C
:100E1000013800BFFCD14FF08040016821F0010192
:100E200001607047F0B581B04AF22006C4F20A06AC
:100E3000012146F8201C4FF080410A680446D20781
:100E400010D1086810F01C0F06D04FF080400068E9
:100E500000F01C00082805D1142000BF013800BF95
:100E6000FCD104E044F62060013800BFFCD14FF013
:100E700080473868002540F00100C4F20A05386058
:100E8000284603210F22002300F04EFF28460421AC
:100E90000F22002300F048FF306840F4702040F03B
:100EA000220030603868C00710D1386810F01C0F7D
:100EB00006D04FF08040006800F01C00082805D1E3
:100EC000142000BF013800BFFCD104E044F62060CC
:100ED000013800BFFCD14FF080400168C9070FD135
:100EE000006810F01C0F06D04FF08040006800F042
:100EF0001C00082804D11420013800BFFCD104E0F4
:100F000044F62060013800BFFCD10420C4F2000088
:100F1000012101604FF080400168002C21F01C018C
:100F20000160016841F00C010160016821F00201DB
:100F300018BF02310160016821F00101016001B0B8
:100F4000F0BD00BFB0B50024C4F20A044AF2400567
:100F5000204603210F220023C4F20A0500F0E4FE1C
:100F6000204604210F22002300F0DEFE55F8200C5D
:100F700040F4702040F0220045F8200C4FF08040F3
:100F80000168C90710D1006810F01C0F06D04FF09F
:100F90008040006800F01C00082805D1142000BF24
:100FA000013800BFFCD104E044F62060013800BFE6
:100FB000FCD14FF080400168C9070FD1006810F0E4
:100FC0001C0F06D04FF08040006800F01C0008287D
:100FD00004D11420013800BFFCD104E044F62060A5
:100FE000013800BFFCD128684FF6006120F00200F4
:100FF00028606868CFF6E04108406860686840F49F
:10100000403040F03C006860286820F00400286010
:10101000E8680028FCD0286840F001002860B0BDD6
:101020004AF20000C4F20A00012101604FF0804141
:101030000A68D20710D1096811F01C0F06D04FF0D2
:101040008041096801F01C01082905D1142100BF65
:10105000013900BFFCD104E044F62061013900BF32
:10106000FCD14FF080410A6842F001020A6001227F
:1010700002650420C4F200000260086820F01C0031
:10108000086008680860086820F0020008600868C6
:10109000C0070FD1086810F01C0F06D04FF0804039
:1010A000006800F01C00082804D11420013800BF9B
:1010B000FCD104E044F62060013800BFFCD14FF0C1
:1010C0008040016821F00101016070474AF2200070
:1010D000C4F20A00012140F8201C4FF080410A6848
:1010E000D2070FD1096811F01C0F06D04FF08041D4
:1010F000096801F01C01082904D11421013900BF3D
:10110000FCD104E044F62061013900BFFCD14FF06E
:1011100080410A6842F001020A60016840F21172DF
:10112000114301604FF47A70013800BFFCD10420F4
:10113000C4F20000012101604FF08040016821F0FD
:101140001C010160016841F008010160016821F0A3
:10115000020101600168C90710D1006810F01C0F7E
:1011600006D04FF08040006800F01C00082805D130
:10117000142000BF013800BFFCD104E044F6206019
:10118000013800BFFCD14FF08040016821F001011F
:101190000160704780B54CF20002C4F2040240F2D4
:1011A0000C0C9042C4F2000C05D1DCF8003043F086
:1011B0008063CCF800304AF2900EC4F20A0EDEF8DA
:1011C0000020490222F01F02CEF80020DCF88CC07B
:1011D000DEF800200CF01F031A43CEF80020016057
:1011E00080BD00BF016841F001010160704700BF90
:1011F000016821F001010160704700002DE9F0470E
:1012000040F64002C4F20002012342F8403C87014C
:10121000D35923F04073D351D1F804A00D78AAF12B
:10122000010444EA85644E78BAF1000F08BFAC06A9
:10123000D45102EB8013D1F808C0C3F81CC0D1F818
:101240000C80C3F8088091F810E091F8119049EAF9
:101250000E2444EA862444EA86045C608C7CC4F351
:101260000217042F1DD8DFE807F003060E1C130039
:1012700000249C6115E04FF4306505EA042404F570
:1012800080649C610DE004F00B0404349C6108E070
:101290004FF4002564F312459D611C6844F000641E
:1012A0001C60B9F1020F0AFA06F50DD1EC1705EB37
:1012B000947408EBA406A410DE6008EB440604EB6B
:1012C00044041E6144445C61BEF1020F0DD1EF176E
:1012D00005EB97770CEBA706BF101E620CEB4706D9
:1012E00007EB47075E6267449F62012352F8047C64
:1012F000834027EA030342F8043CCB7C52F8047C89
:1013000083403B4342F8043C496901FA00F30F0A69
:1013100040000E0C874006FA00F042F8343C42F8D8
:10132000287C42F81C0C52F83C6C002946EA030663
:1013300042F83C6C52F8306C46EA070642F8306CD2
:1013400052F8246C46EA000642F8246C52F8386CD5
:1013500026EA030342F8383C52F82C3C23EA070300
:1013600042F82C3C52F8203C23EA000042F8200CC2
:1013700008BFBDE8F0874EF20010CEF20000102149
:101380000160BDE8F08700BF40F640018001C4F273
:1013900000010A5822F040720A50704740F60C03D0
:1013A00001FA00F2C4F200031A600A0A4000090CB4
:1013B000824001FA00F0DA609861704710B540F69B
:1013C0000402C4F20002136801FA00FC43EA0C03B1
:1013D00013604FEA112E4000D4680EFA00F31C434C
:1013E000D460090C946901FA00F044EA00019161AB
:1013F000516821EA0C015160116999431161D16969
:1014000021EA0000D06110BD40F640018001C4F225
:1014100000010A5842F080720A50704740F64002BC
:101420008001C4F20002135801396FF31303135003
:10143000135819431150704740F66C018001C4F2F3
:10144000000108586FF31F50704700BF40F65C0260
:101450008001C4F200021150704700BF40F64802FC
:101460008001C4F200021150704700BF10B540F671
:101470000402C4F20002136801FA00FC23EA0C0320
:1014800013604FEA112E4000D4680EFA00F39C431B
:10149000D460090C946901FA00F024EA000191611A
:1014A000516841EA0C015160116919431161D16918
:1014B0000843D06110BD00BF80B540F60C0CC4F2EB
:1014C000000CDCF8003001FA00F203EA020EDCF84E
:1014D0000C300A0A400082401A40DCF81830090C2F
:1014E00001FA00F042EA0E021840104318BF012032
:1014F00080BD00000821C4F200010A6842F00052D9
:101500000A604CF20801C4F200010A686FF39F52AE
:101510000A6002880B6843EA82520A60FF2241F89F
:10152000082C80784200002841F8042C08BF70473E
:101530004EF20810CEF200004FF08071016070474B
:101540004CF20802C4F200025163D0E90013916228
:10155000D362017A00231163C1898089CFF6FF73BA
:1015600003EB0141013808439063106840F20131F8
:1015700020F440701060106808431060704700BF8E
:10158000D0E900C34CF20802C4F20002C2F808C05D
:10159000D360007A1061D1E900039062D362C889F8
:1015A00000238989CFF6FF7303EB0040013908431C
:1015B0009063106820F440701060106840F00100E3
:1015C00010607047D0E900C34CF20802C4F2000278
:1015D000C2F808C0D360007A1061D1E900039062BC
:1015E000D362087A00231063C8898989CFF6FF7314
:1015F00003EB0040013908439063106840F2011189
:1016000020F440701060106808431060704700BFFD
:1016100080B5D0E900CE4CF20803C4F20003C3F851
:1016200008C0C3F80CE0B0F808C0807A4CEA00604B
:101630001861D1E9000C9861C3F81CC00889897A47
:1016400040EA01601862106898625068D862107AA7
:101650001863D08991890022CFF6FF7202EB004017
:10166000013908439863186840F2012120F4407062
:10167000186018680843186080BD00BF4CF208006D
:10168000C4F20000006800F0010070474CF2040052
:10169000C4F2000002210160704700BF4CF2040058
:1016A000C4F2000000210160704700BF4CF200004E
:1016B000C4F2000002210160704700BF4CF200003C
:1016C000C4F200000068C0F34000704701051CBF71
:1016D0000220704710B54FF6AC74EFF3108172B66C
:1016E000C0F6113440F27142000BC1F200122146E3
:1016F00090474AF20C00C4F20400006840F2014234
:1017000040F48020C1F2001221469047002062B6CA
:1017100010BD00BF10B500F00F0302F00304234317
:101720001CBF022010BD4FF6AC74EFF3108372B6ED
:10173000C0F6113440F2C14C9208C1F2001C23469D
:10174000E0474AF20C00C4F20400006840F2014293
:1017500040F48020C1F2001221469047002062B67A
:1017600010BD00BF80B54FF6AC72EFF3108172B6BA
:101770004F28C0F611320EDC1E282CD028281BD191
:1017800040F2314348F6492041F2A941C1F2001329
:10179000984762B680BD502828D078280CD141F6F1
:1017A000894040F23143C0F2010043F66B51C1F26F
:1017B0000013984762B680BD41F68940C0F201002F
:1017C00040F2314300F5924044F67441C1F20013F7
:1017D000984762B680BD40F2314348F6491040F662
:1017E000A171C1F20013984762B680BD40F2314347
:1017F0004DF2493042F64A11C1F20013984762B6E1
:1018000080BD00002DE9F04381B0074640F2FF7033
:10181000C4F2040000249846914687420D46C4F263
:101820000A041ADD41F2FF70C4F2040087422ADC88
:1018300040F60000C4F20400874239D041F20000B3
:10184000C4F20400874256D10820C4F200000168A7
:10185000203441F0040101604DE0B7F1402F30D059
:1018600044F60000C4F2000087423CD00020C4F2DD
:10187000040087423FD10820C4F20000016841F013
:101880000101016037E041F60000C4F20400874224
:1018900020D041F20000C4F20A0087422BD1082078
:1018A000C4F200004168403441F00101416022E08F
:1018B0000820C4F200000168103441F00201016008
:1018C00019E00820C4F200000168803441F01001E2
:1018D000016010E00820C4F200000168303441F0DB
:1018E0000801016007E00820C4F20000016890349C
:1018F00041F02001016020462946002201230126F3
:1019000000F012FA06FA05F07968B9F1010F14BF78
:1019100021EA00000843786001210898A940D4F822
:101920000021B8F1010F14BF22EA01011143012285
:10193000C4F80011012802FA05F0D4F8002214BFFF
:1019400022EA000010430999C4F800020120A840CF
:101950000129D4F800140CBF084321EA0000C4F8A0
:10196000000401B0BDE8F0830122036802FA01F12E
:1019700019430160704700BF0122036802FA01F1B8
:1019800023EA0101016070470122036802FA01F1B4
:1019900059400160704700BF006BC84000F0010073
:1019A000704700BFC2F110024FF6FF7323FA02F234
:1019B000036802FA01F1194301607047C2F1100295
:1019C0004FF6FF7323FA02F2036802FA01F123EAE9
:1019D00001010160704700BFC2F110024FF6FF73B2
:1019E00023FA02F2036802FA01F1594001607047DC
:1019F000006BC2F110024FF6FF7323FA02F2C840E7
:101A00001040704700EB810001210164704700BF66
:101A100000EB810000210164704700BF00EB8100F2
:101A2000016CC1F101010164704700BFC2F11002F5
:101A30004FF6FF7323FA02F2EFF3108372B60368D6
:101A400002FA01F11943016062B67047C2F1100257
:101A50004FF6FF7323FA02F2EFF3108372B60368B6
:101A600002FA01F123EA0101016062B6704700BF8A
:101A7000C2F110024FF6FF7323FA02F2EFF3108364
:101A800072B6036802FA01F15940016062B670470C
:101A90002DE9F04742F2000CC4F2000C604506D17B
:101AA0000823C4F200031A6842F080421A600A78E0
:101AB0000D7F941E4B784A7F44EA85144FF40056FC
:101AC000A6EB423544EA034391F806E02B4343F486
:101AD000607391F80AA043610D89CB896FF0FF080C
:101AE00008EB0525013B4F8840F200092B43CFF658
:101AF000FF79AEF1010509EB074643EA85636045CE
:101B000043EA060383618D890B8A08EB05258C88DF
:101B1000A3F1010343EA050309EB0445AAF101041B
:101B200043EA846343EA0503C3618B69436240F27D
:101B3000FF130364466485644969C164A7F1010128
:101B400001654FF00101016042600AD1002A08BF1F
:101B5000BDE8F0874EF20810CEF200004FF400719D
:101B60000160BDE8F08700BF137800EB811003F53A
:101B700080710164B2F802C093884CEA0341416469
:101B8000D2F806108164D168C164A3EB0C01016531
:101B900042F21400C4F20000016841F40041016007
:101BA000704700BF80B5DDE902EC42EA034200EB7A
:101BB00081104EEA0C414264816442F21400C4F286
:101BC0000000016841F40041016080BDC16841F03E
:101BD0000201C160704700BFC068C0F34000704799
:101BE00001214160704700BF00214160704700BF84
:101BF00001210160704700BF006800F001007047DC
:101C000010B542F20002C4F20002904209D108224B
:101C1000C4F20002136843F08043136000BF00BFAA
:101C200000BF4FF480224261026C6FF01F0342F448
:101C3000807202640A7891F801E003EB42120023FB
:101C4000CFF6FF7303EB0E4391F802C043EA0204A0
:101C5000002391F803E0CFF6F0734CF2000203EB9F
:101C60000C53CFF6FF7202EB8E3223431A430B79EB
:101C700049794FF60044CFF6FF74013B04EB812114
:101C80001A431143C0F8001110BD00BFC0F8041181
:101C9000C168890758BF704700BFC1688907FBD476
:101CA000704700BFC0F80811C168890758BF704766
:101CB00000BFC1688907FBD4704700BFC0F804119A
:101CC000C168890701D500BFFAE7C0F80821C168DB
:101CD000890758BF704700BF00BFC1688907FBD4A0
:101CE000704700BFC0F80411C168890704D500BF60
:101CF00000BFC1688907FBD4D0F8080180B27047E3
:101D0000C0F80C110021CFF6FF7101EB02415A1E01
:101D10001143C0F81011C16841F00201C160704761
:101D2000C068C0F34000704770B56FF01F0C0CEB3B
:101D3000810C0446082938BF4FEA810C4FF00F0E82
:101D400028BF043426680EFA0CF5AE4326602668D8
:101D500002FA0CF232432260012202FA01F1002B56
:101D6000D0F800230CBF22EA01011143C0F8001390
:101D700070BD000070B540F208010C25C2F20001F0
:101D80004278C4F20005096890F802C090F803E0B8
:101D900003792E68541CB1FBF4F146F480562E6092
:101DA0004FF4484501FB05F546792B4443EA8E1371
:101DB00043EA86034FF00846336090F9003040F262
:101DC0001000C2F200000068DEB2B0FBF4F041F295
:101DD0008044F500C0F2EF3445EA4C05A04288BFCC
:101DE00045F004050C202A43C8F6000040F8082CF2
:101DF000032E9ABF0CA252F823204FF480524FF4C6
:101E00007A43B3FBF2F2013202FB01F140F8041C09
:101E1000022101600168890758BF70BD00BF0168D9
:101E20008907FBD470BD00BF001000000010000047
:101E300000200000000800000C20C8F60000016827
:101E400021F0010101606420013800BFFCD170471E
:101E50000C20C8F60000016841F001010160642017
:101E6000013800BFFCD170472DE9F0410446A0F1D4
:101E70008040A0F58D204FEAB010DDF818800428CE
:101E800040F208001D4616460F46C4F2000004D872
:101E9000016841F40061016003E0416841F48001A0
:101EA0004160204600F098F9A068B8F1000F20F0DA
:101EB0000F00A060A06840EA0700A060A6F1010042
:101EC0002063A5F1010020604FF0010060612169ED
:101ED000404618BF012021F00101084448F6BF0127
:101EE000C4F204018C4220612CDD48F6BF10C4F21C
:101EF000040084424BDD48F63F20C4F204008442D3
:101F000040F3848048F64020C4F20400844200F08C
:101F1000EA8048F68020C4F20400844200F0F08099
:101F200048F6C020C4F20400844209D1B8F1000F81
:101F300006D04EF20810CEF200004FF4000101600E
:101F4000BDE8F08146F6FF00C4F2040084423DDCA7
:101F500046F67F00C4F20400844271DC46F60000BD
:101F6000C4F20400844200F0D98046F64000C4F276
:101F700004008442E4D1B8F1000FE1D04EF2081021
:101F8000CEF20000082140F8081CBDE8F08148F6B8
:101F90003F10C4F2040084426EDC48F6C000C4F274
:101FA0000400844200F0C78048F60010C4F2040028
:101FB0008442C5D1B8F1000FC2D04EF20810CEF263
:101FC00000004FF480310160BDE8F08148F63F0029
:101FD000C4F2040084426ADC46F60010C4F2040035
:101FE000844200F0B68048F60000C4F20400844247
:101FF000A6D1B8F1000FA3D04EF20810CEF2000027
:102000004FF4006140F8081CBDE8F08148F6C010AC
:10201000C4F20400844200F0A98048F60020C4F213
:10202000040084428CD1B8F1000F3FF489AF4EF226
:102030000810CEF200004FF480110160BDE8F0817D
:1020400046F68000C4F20400844200F09C8046F60C
:10205000C000C4F2040084427FF472AFB8F1000FF4
:102060003FF46EAF4EF20810CEF200004FF4800144
:1020700040F8081CBDE8F08148F64010C4F20400A6
:10208000844200F08E8048F68010C4F2040084423E
:102090007FF456AFB8F1000F3FF452AF4EF2081084
:1020A000CEF200004FF480210160BDE8F08148F6D7
:1020B0004000C4F20400844200F0808048F68000B2
:1020C000C4F2040084427FF43BAFB8F1000F3FF448
:1020D00037AF4EF20810CEF200004FF0005140F83A
:1020E000081CBDE8F081B8F1000F3FF429AF4EF2B3
:1020F0000810CEF200004FF400110160BDE8F0813D
:10210000B8F1000F08BFBDE8F0814EF20810CEF222
:1021100000004FF480010160BDE8F081B8F1000FCC
:102120003FF40EAF4EF20810CEF20000042140F84A
:10213000081CBDE8F081B8F1000F3FF401AF4EF28A
:102140000810CEF200004FF0004140F8081CBDE836
:10215000F081B8F1000F3FF4F3AE4EF20810CEF26A
:1021600000004FF400410160BDE8F081B8F1000FBC
:102170003FF4E6AE4EF20810CEF200004FF400211C
:102180000160BDE8F081B8F1000F3FF4D9AE4EF226
:102190000810CEF200004FF4801140F8081CBDE892
:1021A000F081B8F1000F3FF4CBAE4EF20810CEF242
:1021B00000004FF400310160BDE8F081B8F1000F7C
:1021C0003FF4BEAE4EF20810CEF200004FF0806138
:1021D00040F8081CBDE8F08148F6BF01C4F20401D4
:1021E000884248F64041C4F2040123DD48F6BF129C
:1021F000C4F2040290423BDD48F63F22C4F20402DE
:1022000090425FDD48F64022C4F20402904200F0A2
:10221000958048F68022C4F20402904200F091803A
:1022200048F6C022C4F20402904240F0A5806FF448
:1022300000609DE046F6FF02C4F204029042A1F560
:1022400000522ADC46F67F01C4F20401884248DCD1
:1022500046F60001C4F20401884275D046F64001FA
:10226000C4F20401884218BF70476FF0020080E09A
:1022700048F63F12C4F20402904241DC48F6C00224
:10228000C4F20402904262D048F60012C4F2040282
:10229000904271D16FF010006AE048F63F03C4F23B
:1022A000040398423BDC46F60013C4F20403984250
:1022B00050D048F60002C4F2040290425CD16FF0A4
:1022C000010055E048F6C012C4F20402904244D026
:1022D00048F60022C4F2040290424DD16FF480709F
:1022E00046E046F68001C4F20401884238D046F642
:1022F000C001C4F2040188423ED16FF0080038E00A
:1023000048F64012C4F2040290422CD048F68012E3
:10231000C4F2040290422FD16FF0400028E048F64A
:102320004002C4F20402904220D048F68002C4F277
:102330000402904220D16FF0040019E06FF40070A5
:1023400016E06FF4806013E06FF0010011E06FF0B1
:1023500008000DE06FF010000BE06FF0800007E068
:102360006FF0040005E06FF0200001E06FF0020064
:102370000A46116808401060704700BF48F6BF0168
:10238000C4F20401884248F64041C4F2040123DD4E
:1023900048F6BF12C4F2040290423ADD48F63F22EA
:1023A000C4F2040290425CDD48F64022C4F204020A
:1023B000904200F08F8048F68022C4F204029042DE
:1023C00000F08B8048F6C022C4F20402904240F034
:1023D00098804FF4006090E046F6FF02C4F20402D9
:1023E0009042A1F5005228DC46F67F01C4F20401B8
:1023F000884245DC46F60001C4F2040188426FD0F1
:1024000046F64001C4F20401884218BF704702201A
:1024100074E048F63F12C4F2040290423EDC48F6F3
:10242000C002C4F2040290425CD048F60012C4F22A
:102430000402904265D110205FE048F63F03C4F2E9
:102440000403984238DC46F60013C4F204039842B1
:102450004AD048F60002C4F20402904251D1012051
:102460004BE048F6C012C4F2040290423ED048F657
:102470000022C4F20402904243D14FF480703CE049
:1024800046F68001C4F20401884231D046F6C0010C
:10249000C4F20401884234D108202FE048F64012EB
:1024A000C4F20402904225D048F68012C4F204021D
:1024B000904226D1402020E048F64002C4F20402B7
:1024C000904219D048F68002C4F20402904218D11A
:1024D000042012E04FF400700FE04FF480600CE035
:1024E00001200BE0082008E0102007E0802004E035
:1024F000042003E0202000E002200A46116808437F
:102500001060704701218161704700BF0021816127
:10251000704700BF40687047016941F001010161E7
:10252000704700BF016921F001010161704700BFE0
:1025300001214161704700BF406900F00100704710
:102540000162C169002B21F0020118BF0231C16193
:1025500002214161016948F6BF0321F00201002A0E
:1025600018BF0231C4F204039842016128DD48F625
:10257000BF11C4F20401884245DD48F63F21C4F290
:10258000040188427ADD48F64021C4F20401884201
:1025900000F0D68048F68021C4F20401884200F0A1
:1025A000DA8048F6C021C4F20401884207D132B172
:1025B0004EF20810CEF200004FF4000101607047A7
:1025C00046F6FF01C4F20401884239DC46F67F0179
:1025D000C4F20401884268DC46F60001C4F204013A
:1025E000884200F0C38046F64001C4F204018842EC
:1025F000E5D1002AE3D04EF20810CEF20000082107
:1026000040F8081C704748F63F11C4F204018842A4
:1026100065DC48F6C001C4F20401884200F0B180D4
:1026200048F60011C4F204018842C8D1002AC6D07D
:102630004EF20810CEF200004FF480310160704776
:1026400048F63F01C4F20401884260DC46F60011FE
:10265000C4F20401884200F0A08048F60001C4F2F0
:1026600004018842ABD1002AA9D04EF20810CEF264
:1026700000004FF4006140F8081C704748F6C01194
:10268000C4F20401884200F0938048F60021C4F2AD
:102690000401884293D1002A91D04EF20810CEF264
:1026A00000004FF480110160704746F68001C4F2CB
:1026B0000401884200F0878046F6C001C4F204019C
:1026C00088427FF47CAF002A3FF479AF4EF20810C5
:1026D000CEF200004FF4800140F8081C704748F625
:1026E0004011C4F20401884279D048F68011C4F246
:1026F000040188427FF463AF002A3FF460AF4EF2DA
:102700000810CEF200004FF480210160704748F6B7
:102710004001C4F2040188426CD048F68001C4F242
:10272000040188427FF44BAF002A3FF448AF4EF2D9
:102730000810CEF200004FF0005140F8081C70471E
:10274000002A3FF43CAF4EF20810CEF200004FF4E6
:10275000001101607047002A08BF70474EF2081050
:10276000CEF200004FF4800101607047002A3FF470
:1027700026AF4EF20810CEF20000042140F8081CEB
:102780007047002A3FF41BAF4EF20810CEF2000053
:102790004FF0004140F8081C7047002A3FF40FAF8B
:1027A0004EF20810CEF200004FF400410160704775
:1027B000002A3FF404AF4EF20810CEF200004FF4AE
:1027C000002101607047002A3FF4F9AE4EF2081074
:1027D000CEF200004FF4801140F8081C7047002A28
:1027E0003FF4EDAE4EF20810CEF200004FF400318F
:1027F00001607047002A3FF4E2AE4EF20810CEF2BC
:1028000000004FF0806140F8081C7047C16921F05A
:102810000201C161704700BFC269002922F00102B4
:1028200018BF0132C261C16941F00201C161704744
:1028300001627047006A7047016941F0020101615D
:10284000704700BF016921F002010161704700BFBC
:1028500002214161704700BF4069C0F340007047EA
:1028600080B5182343610369002923F0100318BFC2
:10287000103303610369002A23F0080EA0F180439E
:1028800018BF0EF1080EA3F58D234FEAB31CBCF15F
:10289000040FC0F810E03BD80FF20400DFE80CF0A2
:1028A000030D17222D0052EA010031D04EF2001024
:1028B000CEF200000421016080BD52EA010027D061
:1028C0004EF20010CEF200000821016080BD52EAF5
:1028D00001001DD04EF20010CEF200004FF4801126
:1028E000016080BD52EA010012D04EF20010CEF21B
:1028F00000004FF48001016080BD52EA010008BF72
:1029000080BD4EF20010CEF200004FF40041816015
:1029100080BD00BFC06A7047806A7047016941F09E
:1029200010010161704700BF016921F010010161D0
:10293000704700BF10214161704700BF4069C0F37C
:1029400000107047016941F008010161704700BF44
:10295000016921F008010161704700BF0821416150
:10296000704700BF4069C0F3C000704710B5A0F1C8
:102970008042A2F584224FEAF22CBCF1030F0BD85F
:1029800040F2080E52A2C4F2000E52F82C20DEF8DB
:1029900000301A43CEF8002042684CF2000322F4C3
:1029A000007242608268C0F6FF731A40826040F293
:1029B0001002C2F2000212680B68BCF1030FB2FBF6
:1029C000F3F28368A2F1010243EA321282604268A4
:1029D00022F47C0242604A790B794FEAC24242EA11
:1029E000834E8B79426842EA0E0242EA8352426089
:1029F000C26892B2C26091F807E04B7AC26842EABC
:102A00000E4242EA036240F6FF73C260C26922EAE4
:102A10000302C261CA7AC36942EA030242F48052E5
:102A2000C261426844F2140322EA030242608A7AD5
:102A30000B7A91F80CE04FEA820141EA03114468F5
:102A400041EA040141EA8E31416088BF10BD0FF2B6
:102A50000600DFE80CF0020F1C2942EA030050EAEE
:102A60000E004EF20010CEF200004FF0010128D00F
:102A7000016010BD42EA030050EA0E004EF2001061
:102A8000CEF200004FF002011BD0016010BD42EAFF
:102A9000030050EA0E004EF20010CEF200004FF498
:102AA00080710ED0016010BD42EA030050EA0E00B2
:102AB0004EF20010CEF200004FF4001101D0016080
:102AC00010BDC0F88010BFF34F8FBFF36F8F10BDE4
:102AD0004000000080000000000100000002000033
:102AE000416821F400714160704700BF416841F4C2
:102AF00000714160704700BF0160704702680220AA
:102B000000EA52206FF35F220A607047406801219B
:102B100021EA0000704700BF4068012121EAD0008F
:102B2000704700BF4068C0F34000704782684CF2B5
:102B30000003C0F6FF731A40826040F21002C2F236
:102B400000021268B2FBF1F18268013942EA3111E8
:102B50008160704740F21001C2F20001096882688A
:102B60004FF6F073C0F2030303EA0212806842EAF0
:102B700010700130B1FBF0F0704700BF436941EACB
:102B8000820123F0050343614269114341617047AB
:102B90004069C0F3C0107047D0F814C0D2002CF0C8
:102BA0007A0C42EA4101C0F814C041EA03114269BB
:102BB00011434161704700BF4069C0F30020704776
:102BC00080B5D0F818C06FF03F0E2CF47F7C0EEB70
:102BD0008111C0F818C041EA8301836919438161FA
:102BE0000169029B21F00501016142EA830102694A
:102BF0001143016180BD00BF016941F01001016115
:102C0000704700BF0069C0F3400070470069C0F31F
:102C1000C000704721F48071FD2906DC80290CD0AA
:102C2000F82909D14FF020710CE0FE2908D0FF29C6
:102C300002D14FF4000105E0FEE74FF0607101E0C2
:102C40004FF0C071826822F0607282608268114326
:102C5000816070478168090244BF00207047806826
:102C600040014FF0020058BF0120704742681143F5
:102C700041607047426822EA01014160704700BF2D
:102C8000490458BF7047C16941F40051C1617047A0
:102C9000CA0644BF82685FEA422212D44A0444BF93
:102CA00082685FEA82220CD44A0744BF82685FEAE6
:102CB000823206D4490652BF00208068C0F3C0604B
:102CC000704701207047000040F21000C2F200007F
:102CD00001684A1E0021B1EB126F0ED14EF21003B3
:102CE000CEF200034EF6235C5A60CEF2000CE022D6
:102CF0008CF8002099600721196000684DF6836107
:102D0000C4F21B31A0FB0101880C40F2C031C2F2B9
:102D10000001086008684FF47A7100FB01F040F28E
:102D2000BC31C2F200010860704700BF40F2C03100
:102D3000C2F20001096801FB00F14EF21000CEF270
:102D40000000416000218160016841F001010160E3
:102D5000016801F001110129FAD0016821F0010197
:102D6000016000218160704780B5002808BF80BDE8
:102D70004EF2100140F2BC3ECEF200014FF0320C98
:102D8000C2F2000E002200BF83B2332B06D3DEF85E
:102D90000030323803FB0CF34B6005E0DEF8000036
:102DA00000FB03F0486000208A600B6843F00103D9
:102DB0000B6000BF0B6803F00113012BFAD00B6806
:102DC00023F001030B6003048A60DDD180BD00BFE6
:102DD000B0B5002808BFB0BD4EF2100240F2BC33BF
:102DE0000021CEF200024FF0320CC2F200034FF08D
:102DF000000E00BF4FF4FA74A5B2332D06D31D6840
:102E0000323C05FB0CF5556005E000BF1C6804FB77
:102E100005F4546000249160156845F001051560C3
:102E2000156805F00115012DFAD0156825F001058A
:102E3000156025049160DFD14FF4FA74A5B2332DEB
:102E400006D31D68323C05FB0CF5556005E000BF5C
:102E50001C6804FB05F4546000249160156845F07B
:102E600001051560156805F00115012DFAD01568EA
:102E700025F00105156025049160DFD10EF1010EEA
:102E80008645B7D3B0BD00002DE9F04182B040F6D1
:102E9000400844F65406C4F20408C4F20006FFF7E2
:102EA00013FF06F56F3000F56B700027002101223B
:102EB0000123CDE900770125FEF7A4FCA6F1540417
:102EC000204605210122012300970197FEF79AFC75
:102ED000204604210122012300970197FEF792FC6E
:102EE00008F57C6001210122012300970197FEF77C
:102EF00089FC41F64404C4F204040120C8F80050DF
:102F0000356046F8045C2560FFF72EFF0A20276035
:102F1000FFF72AFF78202560FFF726FFFF2000211A
:102F2000C8F80070376046F8047C3560C2B2D20938
:102F30004000072901F10101376046F8042C356093
:102F4000F4D30120002177220023C8F80000C8F83C
:102F50000010316046F8040C306000BFD7B2FF09A2
:102F60005200072B03F10103316046F8047C306006
:102F7000F4D30120002100220123C8F80000C8F882
:102F80000010316046F8040C306000BFDFB2FF096A
:102F90005B00072A02F10102316046F8047C3060D0
:102FA000F4D3012000210022C8F80000C8F8001066
:102FB000316046F8040C3060072A02F101023160EA
:102FC00046F8041C3060F7D3012000210022C8F825
:102FD0000000C8F80010316046F8040C306000BFF3
:102FE000072A02F10102316046F8041C3060F7D371
:102FF0000120002113220023C8F80000C8F80010A7
:10300000316046F8040C3060D7B2FF095200072B3C
:1030100003F10103316046F8047C3060F4D30120F1
:103020000021EF220023C8F80000C8F8001031602A
:1030300046F8041C306000BFD7B2FF095200072BCE
:1030400003F10103316046F8047C3060F4D30120C1
:10305000002108220023C8F80000C8F800103160E1
:1030600046F8040C306000BFD7B2FF095200072BAE
:1030700003F10103316046F8047C3060F4D3012091
:103080000021FF220023C8F80000C8F800103160BA
:1030900046F8041C306000BFD7B2FF095200072B6E
:1030A00003F10103316046F8047C3060F4D3012061
:1030B000002177220023C8F80000C8F80010316012
:1030C00046F8040C306000BFD7B2FF095200072B4E
:1030D00003F10103316046F8047C3060F4D3012031
:1030E000002100220123C8F80000C8F80010316058
:1030F00046F8040C306000BFDFB2FF095B00072A0E
:1031000002F10102316046F8047C3060F4D3012002
:1031100000210022C8F80000C8F80010316046F80D
:10312000040C3060072A02F10102316046F8041CE9
:103130003060F7D3012000210022C8F80000C8F851
:103140000010316046F8040C306000BF072A02F11D
:103150000102316046F8041C3060F7D301200021E1
:1031600010220023C8F80000C8F80010316046F8AB
:10317000040C3060D7B2FF095200072B03F10103A2
:10318000316046F8047C3060F4D301200021C02275
:103190000023C8F80000C8F80010316046F8041C8D
:1031A000306000BFD7B2FF095200072B03F10103C3
:1031B000316046F8047C3060F4D3012000213B22CA
:1031C0000023C8F80000C8F80010316046F8040C6D
:1031D000306000BFD7B2FF095200072B03F1010393
:1031E000316046F8047C3060F4D3012000210022D5
:1031F000C8F80000C8F80010316046F8040C3060D0
:10320000072A02F10102316046F8041C3060F7D34E
:1032100001200021C1220023C8F80000C8F80010D6
:10322000316046F8041C3060D7B2FF095200072B0A
:1032300003F10103316046F8047C3060F4D30120CF
:10324000002110220023C8F80000C8F800103160E7
:1032500046F8040C306000BFD7B2FF095200072BBC
:1032600003F10103316046F8047C3060F4D301209F
:1032700000210C220023C8F80000C8F800103160BB
:1032800046F8040C306000BFD7B2FF095200072B8C
:1032900003F10103316046F8047C3060F4D301206F
:1032A0000021C2220023C8F80000C8F800103160D5
:1032B00046F8041C306000BFD7B2FF095200072B4C
:1032C00003F10103316046F8047C3060F4D301203F
:1032D000002131220023C8F80000C8F80010316036
:1032E00046F8040C306000BFD7B2FF095200072B2C
:1032F00003F10103316046F8047C3060F4D301200F
:1033000000210A220023C8F80000C8F8001031602C
:1033100046F8040C306000BFD7B2FF095200072BFB
:1033200003F10103316046F8047C3060F4D30120DE
:103330000021C3220023C8F80000C8F80010316043
:1033400046F8041C306000BFD7B2FF095200072BBB
:1033500003F10103316046F8047C3060F4D30120AE
:10336000002102220023C8F80000C8F800103160D4
:1033700046F8040C306000BFD7B2FF095200072B9B
:1033800003F10103316046F8047C3060F4D301207E
:1033900000210022C8F80000C8F80010316046F88B
:1033A000040C3060072A02F10102316046F8041C67
:1033B0003060F7D3012000210022C8F80000C8F8CF
:1033C0000010316046F8040C306000BF072A02F19B
:1033D0000102316046F8041C3060F7D3012000215F
:1033E000CC220023C8F80000C8F80010316046F86D
:1033F000041C3060D7B2FF095200072B03F1010310
:10340000316046F8047C3060F4D3012000211022A2
:103410000023C8F80000C8F80010316046F8040C1A
:10342000306000BFD7B2FF095200072B03F1010340
:10343000316046F8047C3060F4D301200021CD22B5
:103440000023C8F80000C8F80010316046F8041CDA
:10345000306000BFD7B2FF095200072B03F1010310
:10346000316046F8047C3060F4D30120002108224A
:103470000023C8F80000C8F80010316046F8040CBA
:10348000306000BFD7B2FF095200072B03F10103E0
:10349000316046F8047C3060F4D301200021B02272
:1034A0000023C8F80000C8F80010316046F8041C7A
:1034B000306000BFD7B2FF095200072B03F10103B0
:1034C000316046F8047C3060F4D3012000214022B2
:1034D0000023C8F80000C8F80010316046F8040C5A
:1034E000306000BFD7B2FF095200072B03F1010380
:1034F000316046F8047C3060F4D3012000210E22B4
:103500000023C8F80000C8F80010316046F8040C29
:10351000306000BFD7B2FF095200072B03F101034F
:10352000316046F8047C3060F4D301200021582239
:103530000023C8F80000C8F80010316046F8040CF9
:10354000306000BFD7B2FF095200072B03F101031F
:10355000316046F8047C3060F4D3012000210E2253
:103560000023C8F80000C8F80010316046F8040CC9
:10357000306000BFD7B2FF095200072B03F10103EF
:10358000316046F8047C3060F4D30120002112221F
:103590000023C8F80000C8F80010316046F8040C99
:1035A000306000BFD7B2FF095200072B03F10103BF
:1035B000316046F8047C3060F4D3012000210822F9
:1035C0000023C8F80000C8F80010316046F8040C69
:1035D000306000BFD7B2FF095200072B03F101038F
:1035E000316046F8047C3060F4D3012000210C22C5
:1035F0000023C8F80000C8F80010316046F8040C39
:10360000306000BFD7B2FF095200072B03F101035E
:10361000316046F8047C3060F4D301200021092297
:103620000023C8F80000C8F80010316046F8040C08
:10363000306000BFD7B2FF095200072B03F101032E
:10364000316046F8047C3060F4D301200021092267
:103650000023C8F80000C8F80010316046F8040CD8
:10366000306000BFD7B2FF095200072B03F10103FE
:10367000316046F8047C3060F4D301200021272219
:103680000023C8F80000C8F80010316046F8040CA8
:10369000306000BFD7B2FF095200072B03F10103CE
:1036A000316046F8047C3060F4D301200021072209
:1036B0000023C8F80000C8F80010316046F8040C78
:1036C000306000BFD7B2FF095200072B03F101039E
:1036D000316046F8047C3060F4D3012000211822C8
:1036E0000023C8F80000C8F80010316046F8040C48
:1036F000306000BFD7B2FF095200072B03F101036E
:10370000316046F8047C3060F4D30120002115229A
:103710000023C8F80000C8F80010316046F8040C17
:10372000306000BFD7B2FF095200072B03F101033D
:10373000316046F8047C3060F4D301200021782207
:103740000023C8F80000C8F80010316046F8040CE7
:10375000306000BFD7B2FF095200072B03F101030D
:10376000316046F8047C3060F4D301200021262229
:103770000023C8F80000C8F80010316046F8040CB7
:10378000306000BFD7B2FF095200072B03F10103DD
:10379000316046F8047C3060F4D301200021C72258
:1037A0000023C8F80000C8F80010316046F8040C87
:1037B000306000BFD7B2FF095200072B03F10103AD
:1037C000316046F8047C3060F4D301200021B1223E
:1037D0000023C8F80000C8F80010316046F8041C47
:1037E000306000BFD7B2FF095200072B03F101037D
:1037F000316046F8047C3060F4D30120002140227F
:103800000023C8F80000C8F80010316046F8040C26
:10381000306000BFD7B2FF095200072B03F101034C
:10382000316046F8047C3060F4D30120002113227B
:103830000023C8F80000C8F80010316046F8040CF6
:10384000306000BFD7B2FF095200072B03F101031C
:10385000316046F8047C3060F4D3012000215B2203
:103860000023C8F80000C8F80010316046F8040CC6
:10387000306000BFD7B2FF095200072B03F10103EC
:10388000316046F8047C3060F4D3012000210D2221
:103890000023C8F80000C8F80010316046F8040C96
:1038A000306000BFD7B2FF095200072B03F10103BC
:1038B000316046F8047C3060F4D3012000211122ED
:1038C0000023C8F80000C8F80010316046F8040C66
:1038D000306000BFD7B2FF095200072B03F101038C
:1038E000316046F8047C3060F4D3012000210622C8
:1038F0000023C8F80000C8F80010316046F8040C36
:10390000306000BFD7B2FF095200072B03F101035B
:10391000316046F8047C3060F4D3012000210A2293
:103920000023C8F80000C8F80010316046F8040C05
:10393000306000BFD7B2FF095200072B03F101032B
:10394000316046F8047C3060F4D301200021082265
:103950000023C8F80000C8F80010316046F8040CD5
:10396000306000BFD7B2FF095200072B03F10103FB
:10397000316046F8047C3060F4D301200021082235
:103980000023C8F80000C8F80010316046F8040CA5
:10399000306000BFD7B2FF095200072B03F10103CB
:1039A000316046F8047C3060F4D3012000212622E7
:1039B0000023C8F80000C8F80010316046F8040C75
:1039C000306000BFD7B2FF095200072B03F101039B
:1039D000316046F8047C3060F4D3012000210322DA
:1039E0000023C8F80000C8F80010316046F8040C45
:1039F000306000BFD7B2FF095200072B03F101036B
:103A0000316046F8047C3060F4D301200021132299
:103A10000023C8F80000C8F80010316046F8040C14
:103A2000306000BFD7B2FF095200072B03F101033A
:103A3000316046F8047C3060F4D30120002112226A
:103A40000023C8F80000C8F80010316046F8040CE4
:103A5000306000BFD7B2FF095200072B03F101030A
:103A6000316046F8047C3060F4D3012000217922D3
:103A70000023C8F80000C8F80010316046F8040CB4
:103A8000306000BFD7B2FF095200072B03F10103DA
:103A9000316046F8047C3060F4D3012000212822F4
:103AA0000023C8F80000C8F80010316046F8040C84
:103AB000306000BFD7B2FF095200072B03F10103AA
:103AC000316046F8047C3060F4D301200021C92223
:103AD0000023C8F80000C8F80010316046F8040C54
:103AE000306000BFD7B2FF095200072B03F101037A
:103AF000316046F8047C3060F4D301200021FF22BD
:103B00000023C8F80000C8F80010316046F8041C13
:103B1000306000BFD7B2FF095200072B03F1010349
:103B2000316046F8047C3060F4D301200021772214
:103B30000023C8F80000C8F80010316046F8040CF3
:103B4000306000BFD7B2FF095200072B03F1010319
:103B5000316046F8047C3060F4D30120002100225B
:103B60000123C8F80000C8F80010316046F8040CC2
:103B7000306000BFDFB2FF095B00072A02F10102DB
:103B8000316046F8047C3060F4D30120002100222B
:103B9000C8F80000C8F80010316046F8040C306026
:103BA000072A02F10102316046F8041C3060F7D3A5
:103BB000012000210022C8F80000C8F80010316080
:103BC00046F8040C306000BF072A02F101023160A0
:103BD00046F8041C3060F7D3012000211122002395
:103BE000C8F80000C8F80010316046F8040C3060D6
:103BF000D7B2FF095200072B03F10103316046F8E9
:103C0000047C3060F4D301200021B0220023C8F8E6
:103C10000000C8F80010316046F8041C306000BF96
:103C2000D7B2FF095200072B03F10103316046F8B8
:103C3000047C3060F4D3012000216D220023C8F8F9
:103C40000000C8F80010316046F8040C306000BF76
:103C5000D7B2FF095200072B03F10103316046F888
:103C6000047C3060F4D301200021B1220023C8F885
:103C70000000C8F80010316046F8041C306000BF36
:103C8000D7B2FF095200072B03F10103316046F858
:103C9000047C3060F4D30120002138220023C8F8CE
:103CA0000000C8F80010316046F8040C306000BF16
:103CB000D7B2FF095200072B03F10103316046F828
:103CC000047C3060F4D301200021B2220023C8F824
:103CD0000000C8F80010316046F8041C306000BFD6
:103CE000D7B2FF095200072B03F10103316046F8F8
:103CF000047C3060F4D30120002181220023C8F825
:103D00000000C8F80010316046F8040C306000BFB5
:103D1000D7B2FF095200072B03F10103316046F8C7
:103D2000047C3060F4D301200021B3220023C8F8C2
:103D30000000C8F80010316046F8041C306000BF75
:103D4000D7B2FF095200072B03F10103316046F897
:103D5000047C3060F4D30120002100220123C8F844
:103D60000000C8F80010316046F8040C306000BF55
:103D7000316046F8043C072A02F101024FF00003CB
:103D80003060F5D301200021B5220023C8F80000DF
:103D9000C8F80010316046F8041C3060D7B2FF0943
:103DA0005200072B03F10103316046F8047C3060B8
:103DB000F4D3012000214E220023C8F80000C8F8E7
:103DC0000010316046F8040C306000BFD7B2FF0924
:103DD0005200072B03F10103316046F8047C306088
:103DE000F4D301200021B7220023C8F80000C8F84E
:103DF0000010316046F8041C306000BFD7B2FF09E4
:103E00005200072B03F10103316046F8047C306057
:103E1000F4D30120002185220023C8F80000C8F84F
:103E20000010316046F8040C306000BFD7B2FF09C3
:103E30005200072B03F10103316046F8047C306027
:103E4000F4D301200021B8220023C8F80000C8F8EC
:103E50000010316046F8041C306000BFD7B2FF0983
:103E60005200072B03F10103316046F8047C3060F7
:103E7000F4D30120002120220023C8F80000C8F854
:103E80000010316046F8040C306000BFD7B2FF0963
:103E90005200072B03F10103316046F8047C3060C7
:103EA000F4D301200021C1220023C8F80000C8F883
:103EB0000010316046F8041C306000BFD7B2FF0923
:103EC0005200072B03F10103316046F8047C306097
:103ED000F4D30120002178220023C8F80000C8F89C
:103EE0000010316046F8040C306000BFD7B2FF0903
:103EF0005200072B03F10103316046F8047C306067
:103F0000F4D301200021C2220023C8F80000C8F821
:103F10000010316046F8041C306000BFD7B2FF09C2
:103F20005200072B03F10103316046F8047C306036
:103F3000F4D30120002178220023C8F80000C8F83B
:103F40000010316046F8040C306000BFD7B2FF09A2
:103F50005200072B03F10103316046F8047C306006
:103F6000F4D301200021D0220023C8F80000C8F8B3
:103F70000010316046F8041C306000BFD7B2FF0962
:103F80005200072B03F10103316046F8047C3060D6
:103F9000F4D30120002188220023C8F80000C8F8CB
:103FA0000010316046F8040C306000BFD7B2FF0942
:103FB0005200072B03F10103316046F8047C3060A6
:103FC000F4D301200021E0220023C8F80000C8F843
:103FD0000010316046F8041C306000BFD7B2FF0902
:103FE0005200072B03F10103316046F8047C306076
:103FF000F4D3012000210022C8F80000C8F8001006
:10400000316046F8040C3060072A02F10102316089
:1040100046F8041C3060F7D3012000210022C8F8C4
:104020000000C8F80010316046F8040C306000BF92
:10403000072A02F10102316046F8041C3060F7D310
:104040000120002102220023C8F80000C8F8001057
:10405000316046F8040C3060D7B2FF095200072BDC
:1040600003F10103316046F8047C3060F4D3012091
:104070000021E1220023C8F80000C8F800103160D8
:1040800046F8041C306000BFD7B2FF095200072B6E
:1040900003F10103316046F8047C3060F4D3012061
:1040A000002106220023C8F80000C8F80010316083
:1040B00046F8040C306000BFD7B2FF095200072B4E
:1040C00003F10103316046F8047C3060F4D3012031
:1040D000002130220023C8F80000C8F80010316029
:1040E00046F8040C306000BFD7B2FF095200072B1E
:1040F00003F10103316046F8047C3060F4D3012001
:10410000002108220023C8F80000C8F80010316020
:1041100046F8040C306000BFD7B2FF095200072BED
:1041200003F10103316046F8047C3060F4D30120D0
:10413000002130220023C8F80000C8F800103160C8
:1041400046F8040C306000BFD7B2FF095200072BBD
:1041500003F10103316046F8047C3060F4D30120A0
:10416000002105220023C8F80000C8F800103160C3
:1041700046F8040C306000BFD7B2FF095200072B8D
:1041800003F10103316046F8047C3060F4D3012070
:10419000002130220023C8F80000C8F80010316068
:1041A00046F8040C306000BFD7B2FF095200072B5D
:1041B00003F10103316046F8047C3060F4D3012040
:1041C000002107220023C8F80000C8F80010316061
:1041D00046F8040C306000BFD7B2FF095200072B2D
:1041E00003F10103316046F8047C3060F4D3012010
:1041F000002130220023C8F80000C8F80010316008
:1042000046F8040C306000BFD7B2FF095200072BFC
:1042100003F10103316046F8047C3060F4D30120DF
:1042200000210022C8F80000C8F80010316046F8EC
:10423000040C3060072A02F10102316046F8041CC8
:104240003060F7D30120002133220023C8F800009A
:10425000C8F80010316046F8040C3060D7B2FF098E
:104260005200072B03F10103316046F8047C3060F3
:10427000F4D30120002133220023C8F80000C8F83D
:104280000010316046F8040C306000BFD7B2FF095F
:104290005200072B03F10103316046F8047C3060C3
:1042A000F4D301200021E2220023C8F80000C8F85E
:1042B0000010316046F8041C306000BFD7B2FF091F
:1042C0005200072B03F10103316046F8047C306093
:1042D000F4D30120002111220023C8F80000C8F8FF
:1042E0000010316046F8040C306000BFD7B2FF09FF
:1042F0005200072B03F10103316046F8047C306063
:10430000F4D30120002111220023C8F80000C8F8CE
:104310000010316046F8040C306000BFD7B2FF09CE
:104320005200072B03F10103316046F8047C306032
:10433000F4D30120002133220023C8F80000C8F87C
:104340000010316046F8040C306000BFD7B2FF099E
:104350005200072B03F10103316046F8047C306002
:10436000F4D30120002133220023C8F80000C8F84C
:104370000010316046F8040C306000BFD7B2FF096E
:104380005200072B03F10103316046F8047C3060D2
:10439000F4D301200021F4220023C8F80000C8F85B
:1043A0000010316046F8040C306000BFD7B2FF093E
:1043B0005200072B03F10103316046F8047C3060A2
:1043C000F4D3012000210022C8F80000C8F8001032
:1043D000316046F8040C3060072A02F101023160B6
:1043E00046F8041C3060F7D3012000210022C8F8F1
:1043F0000000C8F80010316046F8040C306000BFBF
:10440000072A02F10102316046F8041C3060F7D33C
:10441000012000210022C8F80000C8F80010316017
:1044200046F8040C306000BF072A02F10102316037
:1044300046F8041C3060F7D301200021F422002349
:10444000C8F80000C8F80010316046F8040C30606D
:10445000D7B2FF095200072B03F10103316046F880
:10446000047C3060F4D3012000210022C8F8000051
:10447000C8F80010316046F8040C3060072A02F1D9
:104480000102316046F8041C3060F7D3012000219E
:104490000022C8F80000C8F80010316046F8040C8B
:1044A000306000BF072A02F10102316046F8041CA7
:1044B0003060F7D3012000210022C8F80000C8F8BE
:1044C0000010316046F8040C306000BF072A02F18A
:1044D0000102316046F8041C3060F7D3012000214E
:1044E000E3220023C8F80000C8F80010316046F845
:1044F000041C3060D7B2FF095200072B03F10103FF
:10450000316046F8047C3060F4D3012000210022A1
:10451000C8F80000C8F80010316046F8040C30609C
:10452000072A02F10102316046F8041C3060F7D31B
:10453000012000210022C8F80000C8F800103160F6
:1045400046F8040C306000BF072A02F10102316016
:1045500046F8041C3060F7D301200021112200230B
:10456000C8F80000C8F80010316046F8040C30604C
:10457000D7B2FF095200072B03F10103316046F85F
:10458000047C3060F4D30120002111220023C8F8FC
:104590000000C8F80010316046F8040C306000BF1D
:1045A000D7B2FF095200072B03F10103316046F82F
:1045B000047C3060F4D301200021E4220023C8F8F9
:1045C0000000C8F80010316046F8041C306000BFDD
:1045D000D7B2FF095200072B03F10103316046F8FF
:1045E000047C3060F4D30120002144220023C8F869
:1045F0000000C8F80010316046F8040C306000BFBD
:10460000D7B2FF095200072B03F10103316046F8CE
:10461000047C3060F4D30120002144220023C8F838
:104620000000C8F80010316046F8040C306000BF8C
:10463000D7B2FF095200072B03F10103316046F89E
:10464000047C3060F4D301200021E5220023C8F867
:104650000000C8F80010316046F8041C306000BF4C
:10466000D7B2FF095200072B03F10103316046F86E
:10467000047C3060F4D3012000210D220023C8F80F
:104680000000C8F80010316046F8040C306000BF2C
:10469000D7B2FF095200072B03F10103316046F83E
:1046A000047C3060F4D301200021F5220023C8F8F7
:1046B0000000C8F80010316046F8040C306000BFFC
:1046C000D7B2FF095200072B03F10103316046F80E
:1046D000047C3060F4D30120002130220023C8F88C
:1046E0000000C8F80010316046F8040C306000BFCC
:1046F000D7B2FF095200072B03F10103316046F8DE
:10470000047C3060F4D301200021F0220023C8F89B
:104710000000C8F80010316046F8040C306000BF9B
:10472000D7B2FF095200072B03F10103316046F8AD
:10473000047C3060F4D3012000210F220023C8F84C
:104740000000C8F80010316046F8040C306000BF6B
:10475000D7B2FF095200072B03F10103316046F87D
:10476000047C3060F4D301200021F7220023C8F834
:104770000000C8F80010316046F8040C306000BF3B
:10478000D7B2FF095200072B03F10103316046F84D
:10479000047C3060F4D30120002130220023C8F8CB
:1047A0000000C8F80010316046F8040C306000BF0B
:1047B000D7B2FF095200072B03F10103316046F81D
:1047C000047C3060F4D301200021F0220023C8F8DB
:1047D0000000C8F80010316046F8040C306000BFDB
:1047E000D7B2FF095200072B03F10103316046F8ED
:1047F000047C3060F4D30120002109220023C8F892
:104800000000C8F80010316046F8040C306000BFAA
:10481000D7B2FF095200072B03F10103316046F8BC
:10482000047C3060F4D301200021F1220023C8F879
:104830000000C8F80010316046F8040C306000BF7A
:10484000D7B2FF095200072B03F10103316046F88C
:10485000047C3060F4D30120002130220023C8F80A
:104860000000C8F80010316046F8040C306000BF4A
:10487000D7B2FF095200072B03F10103316046F85C
:10488000047C3060F4D301200021F0220023C8F81A
:104890000000C8F80010316046F8040C306000BF1A
:1048A000D7B2FF095200072B03F10103316046F82C
:1048B000047C3060F4D3012000210B220023C8F8CF
:1048C0000000C8F80010316046F8040C306000BFEA
:1048D000D7B2FF095200072B03F10103316046F8FC
:1048E000047C3060F4D301200021F3220023C8F8B7
:1048F0000000C8F80010316046F8040C306000BFBA
:10490000D7B2FF095200072B03F10103316046F8CB
:10491000047C3060F4D30120002130220023C8F849
:104920000000C8F80010316046F8040C306000BF89
:10493000D7B2FF095200072B03F10103316046F89B
:10494000047C3060F4D301200021F0220023C8F859
:104950000000C8F80010316046F8040C306000BF59
:10496000D7B2FF095200072B03F10103316046F86B
:10497000047C3060F4D301200021E6220023C8F833
:104980000000C8F80010316046F8041C306000BF19
:10499000D7B2FF095200072B03F10103316046F83B
:1049A000047C3060F4D3012000210022C8F800000C
:1049B000C8F80010316046F8040C3060072A02F194
:1049C0000102316046F8041C3060F7D30120002159
:1049D0000022C8F80000C8F80010316046F8040C46
:1049E000306000BF072A02F10102316046F8041C62
:1049F0003060F7D30120002111220023C8F8000005
:104A0000C8F80010316046F8040C3060D7B2FF09D6
:104A10005200072B03F10103316046F8047C30603B
:104A2000F4D30120002111220023C8F80000C8F8A7
:104A30000010316046F8040C306000BFD7B2FF09A7
:104A40005200072B03F10103316046F8047C30600B
:104A5000F4D301200021E7220023C8F80000C8F8A1
:104A60000010316046F8041C306000BFD7B2FF0967
:104A70005200072B03F10103316046F8047C3060DB
:104A8000F4D30120002144220023C8F80000C8F814
:104A90000010316046F8040C306000BFD7B2FF0947
:104AA0005200072B03F10103316046F8047C3060AB
:104AB000F4D30120002144220023C8F80000C8F8E4
:104AC0000010316046F8040C306000BFD7B2FF0917
:104AD0005200072B03F10103316046F8047C30607B
:104AE000F4D301200021E8220023C8F80000C8F810
:104AF0000010316046F8041C306000BFD7B2FF09D7
:104B00005200072B03F10103316046F8047C30604A
:104B1000F4D3012000210C220023C8F80000C8F8BB
:104B20000010316046F8040C306000BFD7B2FF09B6
:104B30005200072B03F10103316046F8047C30601A
:104B4000F4D301200021F4220023C8F80000C8F8A3
:104B50000010316046F8040C306000BFD7B2FF0986
:104B60005200072B03F10103316046F8047C3060EA
:104B7000F4D30120002130220023C8F80000C8F837
:104B80000010316046F8040C306000BFD7B2FF0956
:104B90005200072B03F10103316046F8047C3060BA
:104BA000F4D301200021F0220023C8F80000C8F847
:104BB0000010316046F8040C306000BFD7B2FF0926
:104BC0005200072B03F10103316046F8047C30608A
:104BD000F4D3012000210E220023C8F80000C8F8F9
:104BE0000010316046F8040C306000BFD7B2FF09F6
:104BF0005200072B03F10103316046F8047C30605A
:104C0000F4D301200021F6220023C8F80000C8F8E0
:104C10000010316046F8040C306000BFD7B2FF09C5
:104C20005200072B03F10103316046F8047C306029
:104C3000F4D30120002130220023C8F80000C8F876
:104C40000010316046F8040C306000BFD7B2FF0995
:104C50005200072B03F10103316046F8047C3060F9
:104C6000F4D301200021F0220023C8F80000C8F886
:104C70000010316046F8040C306000BFD7B2FF0965
:104C80005200072B03F10103316046F8047C3060C9
:104C9000F4D30120002108220023C8F80000C8F83E
:104CA0000010316046F8040C306000BFD7B2FF0935
:104CB0005200072B03F10103316046F8047C306099
:104CC000F4D301200021F0220023C8F80000C8F826
:104CD0000010316046F8040C306000BFD7B2FF0905
:104CE0005200072B03F10103316046F8047C306069
:104CF000F4D30120002130220023C8F80000C8F8B6
:104D00000010316046F8040C306000BFD7B2FF09D4
:104D10005200072B03F10103316046F8047C306038
:104D2000F4D301200021F0220023C8F80000C8F8C5
:104D30000010316046F8040C306000BFD7B2FF09A4
:104D40005200072B03F10103316046F8047C306008
:104D5000F4D3012000210A220023C8F80000C8F87B
:104D60000010316046F8040C306000BFD7B2FF0974
:104D70005200072B03F10103316046F8047C3060D8
:104D8000F4D301200021F2220023C8F80000C8F863
:104D90000010316046F8040C306000BFD7B2FF0944
:104DA0005200072B03F10103316046F8047C3060A8
:104DB000F4D30120002130220023C8F80000C8F8F5
:104DC0000010316046F8040C306000BFD7B2FF0914
:104DD0005200072B03F10103316046F8047C306078
:104DE000F4D301200021F0220023C8F80000C8F805
:104DF0000010316046F8040C306000BFD7B2FF09E4
:104E00005200072B03F10103316046F8047C306047
:104E1000F4D301200021E9220023C8F80000C8F8DB
:104E20000010316046F8041C306000BFD7B2FF09A3
:104E30005200072B03F10103316046F8047C306017
:104E4000F4D30120002136220023C8F80000C8F85E
:104E50000010316046F8040C306000BFD7B2FF0983
:104E60005200072B03F10103316046F8047C3060E7
:104E7000F4D30120002100220123C8F80000C8F863
:104E80000010316046F8040C306000BFDFB2FF094B
:104E90005B00072A02F10102316046F8047C3060B1
:104EA000F4D301200021EB220023C8F80000C8F849
:104EB0000010316046F8041C306000BFD7B2FF0913
:104EC0005200072B03F10103316046F8047C306087
:104ED000F4D3012000210022C8F80000C8F8001017
:104EE000316046F8040C3060072A02F1010231609B
:104EF00046F8041C3060F7D3012000210022012372
:104F0000C8F80000C8F80010316046F8040C3060A2
:104F1000DFB2FF095B00072A02F10102316046F8A7
:104F2000047C3060F4D301200021E4220023C8F87F
:104F30000000C8F80010316046F8040C306000BF73
:104F4000D7B2FF095200072B03F10103316046F885
:104F5000047C3060F4D301200021E4220023C8F84F
:104F60000000C8F80010316046F8040C306000BF43
:104F7000D7B2FF095200072B03F10103316046F855
:104F8000047C3060F4D30120002144220023C8F8BF
:104F90000000C8F80010316046F8040C306000BF13
:104FA000D7B2FF095200072B03F10103316046F825
:104FB000047C3060F4D30120002188220023C8F84B
:104FC0000000C8F80010316046F8040C306000BFE3
:104FD000D7B2FF095200072B03F10103316046F8F5
:104FE000047C3060F4D30120002140220023C8F863
:104FF0000000C8F80010316046F8040C306000BFB3
:10500000D7B2FF095200072B03F10103316046F8C4
:10501000047C3060F4D301200021ED220023C8F885
:105020000000C8F80010316046F8041C306000BF72
:10503000D7B2FF095200072B03F10103316046F894
:10504000047C3060F4D301200021FF220023C8F843
:105050000000C8F80010316046F8040C306000BF52
:10506000D7B2FF095200072B03F10103316046F864
:10507000047C3060F4D30120002145220023C8F8CD
:105080000000C8F80010316046F8040C306000BF22
:10509000D7B2FF095200072B03F10103316046F834
:1050A000047C3060F4D30120002167220023C8F87B
:1050B0000000C8F80010316046F8040C306000BFF2
:1050C000D7B2FF095200072B03F10103316046F804
:1050D000047C3060F4D301200021FA220023C8F8B8
:1050E0000000C8F80010316046F8040C306000BFC2
:1050F000D7B2FF095200072B03F10103316046F8D4
:10510000047C3060F4D30120002100220123C8F880
:105110000000C8F80010316046F8040C306000BF91
:10512000DFB2FF095B00072A02F10102316046F895
:10513000047C3060F4D3012000212B220023C8F826
:105140000000C8F80010316046F8040C306000BF61
:10515000D7B2FF095200072B03F10103316046F873
:10516000047C3060F4D301200021CF220023C8F852
:105170000000C8F80010316046F8040C306000BF31
:10518000D7B2FF095200072B03F10103316046F843
:10519000047C3060F4D301200021FF220023C8F8F2
:1051A0000000C8F80010316046F8040C306000BF01
:1051B000D7B2FF095200072B03F10103316046F813
:1051C000047C3060F4D301200021FF220023C8F8C2
:1051D0000000C8F80010316046F8040C306000BFD1
:1051E000D7B2FF095200072B03F10103316046F8E3
:1051F000047C3060F4D301200021FC220023C8F895
:105200000000C8F80010316046F8040C306000BFA0
:10521000D7B2FF095200072B03F10103316046F8B2
:10522000047C3060F4D301200021B2220023C8F8AE
:105230000000C8F80010316046F8040C306000BF70
:10524000D7B2FF095200072B03F10103316046F882
:10525000047C3060F4D30120002110220023C8F820
:105260000000C8F80010316046F8040C306000BF40
:10527000D7B2FF095200072B03F10103316046F852
:10528000047C3060F4D301200021AF220023C8F851
:105290000000C8F80010316046F8040C306000BF10
:1052A000D7B2FF095200072B03F10103316046F822
:1052B000047C3060F4D30120002176220023C8F85A
:1052C0000000C8F80010316046F8040C306000BFE0
:1052D000D7B2FF095200072B03F10103316046F8F2
:1052E000047C3060F4D30120002154220023C8F84C
:1052F0000000C8F80010316046F8040C306000BFB0
:10530000D7B2FF095200072B03F10103316046F8C1
:10531000047C3060F4D301200021FF220023C8F870
:105320000000C8F80010316046F8040C306000BF7F
:10533000D7B2FF095200072B03F10103316046F891
:10534000047C3060F4D301200021EF220023C8F850
:105350000000C8F80010316046F8041C306000BF3F
:10536000D7B2FF095200072B03F10103316046F861
:10537000047C3060F4D30120002110220023C8F8FF
:105380000000C8F80010316046F8040C306000BF1F
:10539000D7B2FF095200072B03F10103316046F831
:1053A000047C3060F4D3012000210D220023C8F8D2
:1053B0000000C8F80010316046F8040C306000BFEF
:1053C000D7B2FF095200072B03F10103316046F801
:1053D000047C3060F4D30120002104220023C8F8AB
:1053E0000000C8F80010316046F8040C306000BFBF
:1053F000D7B2FF095200072B03F10103316046F8D1
:10540000047C3060F4D30120002108220023C8F876
:105410000000C8F80010316046F8040C306000BF8E
:10542000D7B2FF095200072B03F10103316046F8A0
:10543000047C3060F4D3012000213F220023C8F80F
:105440000000C8F80010316046F8040C306000BF5E
:10545000D7B2FF095200072B03F10103316046F870
:10546000047C3060F4D3012000211F220023C8F8FF
:105470000000C8F80010316046F8040C306000BF2E
:10548000D7B2FF095200072B03F10103316046F840
:10549000047C3060F4D301200021FF220023C8F8EF
:1054A0000000C8F80010316046F8041C306000BFEE
:1054B000D7B2FF095200072B03F10103316046F810
:1054C000047C3060F4D30120002177220023C8F847
:1054D0000000C8F80010316046F8040C306000BFCE
:1054E000D7B2FF095200072B03F10103316046F8E0
:1054F000047C3060F4D30120002100220123C8F88D
:105500000000C8F80010316046F8040C306000BF9D
:10551000DFB2FF095B00072A02F10102316046F8A1
:10552000047C3060F4D3012000210022C8F8000080
:10553000C8F80010316046F8040C3060072A02F108
:105540000102316046F8041C3060F7D301200021CD
:105550000022C8F80000C8F80010316046F8040CBA
:10556000306000BF072A02F10102316046F8041CD6
:105570003060F7D3012000210022C8F80000C8F8ED
:105580000010316046F8040C306000BF072A02F1B9
:105590000102316046F8041C3060F7D3012000217D
:1055A0003A220023C8F80000C8F80010316046F81D
:1055B000041C3060D7B2FF095200072B03F101032E
:1055C000316046F8047C3060F4D301200021702261
:1055D0000023C8F80000C8F80010316046F8040C39
:1055E000306000BFD7B2FF095200072B03F101035F
:1055F000316046F8047C3060F4D301200021112290
:105600000023C8F80000C8F80010316046F8041CF8
:10561000306000BFD7B2FF095200072B03F101032E
:10562000316046F8047C3060F4D301247820C8F857
:105630000040FDF799FB002029210022C8F8000056
:10564000306046F8040C3460CBB2DB094900072A0D
:1056500002F10102306046F8043C3460F4D30124C6
:105660001920C8F80040FDF77FFB002035210022FB
:10567000C8F80000306046F8040C3460CBB2DB0997
:105680004900072A02F10102306046F8043C346008
:10569000F4D3012000210022C8F80000C8F800104F
:1056A000316046F8040C3060072A02F101023160D3
:1056B00046F8041C3060F7D30120C8F8000002B09F
:1056C000BDE8F08110B53020C4F20A0002210F229B
:1056D0000023FCF729FB4CF20004C4F2040420462A
:1056E0000121FBF757FD4AF29001C4F20A01086854
:1056F00020F03C000860086860F0500220460A6014
:10570000BDE81040FBF76EBD80B586B0CDE9011055
:105710004CF20C01C4F2040103914FF480410120CA
:10572000ADF8111000214FF480728DF810008DF843
:105730001310059069460020ADF80020FBF75EFDD0
:105740000020FBF761FE06B080BD00BF10B5002051
:10575000FBF71AFE46F60004C4F2040404F5B04058
:10576000FBF746FD2046BDE81040FCF735BD00BF05
:105770004BF20800C4F200000168890458BF70476A
:10578000016841F48071016050F8041C41F0080187
:1057900040F8041C704700BF80B548F60000C4F212
:1057A0000400FCF7C5FE40F2C430C2F20000012143
:1057B000017080BD10B5002001210124FBF77CFEA3
:1057C000002808BF10BD00200121FBF7E7FD40F2D3
:1057D0003300C2F20000047010BD0000B0B5FAF74B
:1057E00099FE40F2E83142F20000C2F20001C4F238
:1057F0000000C164FCF7EAF942F61864C2F2000442
:1058000040F64801C2F20001204600224FF49653B0
:1058100014F048FF42F6C855C2F20005284614F0BD
:105820001DFF40F2E010C0F2E010C5E9000045F6AF
:105830004500C0F2000068612846EC60BDE8B04059
:1058400014F03EBFF0B540F23403C2F200031B78FF
:105850002BB1B1F902C0B1F906309C4503DDBDE8BA
:10586000F04015F083B940F2E83EC2F2000E05E0C8
:10587000B1F906309C450CF1010CF0DAB1F9005099
:10588000B1F904309D42F3DC0FFA8CF36C1EC3EBCC
:1058900003132D045B0100BF32F8026B03EB2547B5
:1058A00001342EF81760B1F9046005F58035B44273
:1058B000F2DBDDE740F23400C2F2000001210170AA
:1058C000704700BF40F23400C2F2000000210170B6
:1058D000704700BF7047000080B5002808BF15F072
:1058E00079F8002814BF0069002080BD80B5002829
:1058F00008BF15F06FF8002814BF4069002080BD74
:1059000080B582B04FF0000C002100220023CDF8BA
:1059100000C000F003F802B080BD00BF2DE9F047E1
:10592000A2B0DDF8A8A0994617460E46044609F035
:10593000C9FA054615F04EF8002808BF15F04AF8D8
:10594000002814BFD0F810804FF00008A869002884
:1059500018BF804518D000F011FAA869002115F091
:1059600071FDA8690021002204F062FDA869602190
:10597000002208F0D9FB95F82800800744BF404674
:1059800009F01CFAD5F818806869AC6138B195F84F
:105990002810890703D509F011FA00206861A6F1E3
:1059A0000A000021052895F8280038BF01216AF374
:1059B000410100F0FC00084485F828002046002141
:1059C00015F040FD15F006F8002808BF15F002F8A4
:1059D000002814BF00690020002115F033FD204687
:1059E0000021002204F024FD14F0F4FF002808BF79
:1059F00014F0F0FF002814BF0069002000210022ED
:105A000004F016FD20466021002208F08DFB14F002
:105A1000E1FF002808BF14F0DDFF002814BF006973
:105A200000206021002208F07FFB59EA07002ED0F9
:105A300011A815F073FC45F6D150C0F20000139088
:105A400045F60560C0F2000011941490C9F10004FD
:105A500068461C971D9415F061FC28690E2E009075
:105A60000B970C9400F2CB80DFE806F0081E27307D
:105A70003A46586A7C8E979FA9B2BC0045F65D6095
:105A8000C0F200001290002411A90020B4E02046CA
:105A900000F074F9BAF1000F00F0BC80404622B06B
:105AA000BDE8F04709F08AB945F65D60C0F2000034
:105AB0001290284614F010FF10E045F65D60C0F229
:105AC00000001290284614F007FF11E045F66560CB
:105AD000C0F200001290284614F018FF044608E0B7
